:100000000C9434000C943E000C943E000C943E0082
:100010000C943E000C943E000C943E000C943E0068
:100020000C943E000C943E000C943E000C943E0058
:100030000C943E000C943E000C943E000C943E0048
:100040000C943E000C943E000C943E000C943E0038
:100050000C943E000C943E000C943E000C943E0028
:100060000C943E000C943E0011241FBECFEFD8E04C
:10007000DEBFCDBF0E949B000C94A0000C9400003A
:100080008CE384B917B88FEF85B91092800082E0B5
:1000900080938100109285001092840084E190E0AA
:1000A000909389008093880010926F000895BC019E
:1000B00020E030E00AC0B19BFECF10928500109284
:1000C000840092E096BB2F5F3F4F94E6969FA0017D
:1000D000979F500D11242417350768F30895CF9387
:1000E000DF93C5E0D0E021C030990DC015B825B12F
:1000F00081E090E00C2E02C0880F991F0A94E2F76D
:10010000822B85B90DC08FEF85B925B181E090E0D4
:100110000C2E02C0880F991F0A94E2F7822785B936
:1001200088EB9BE00E9457002197C230D105E4F68E
:10013000DF91CF9108950E9440000E946F00FDCF93
:04014000F894FFCF61
:00000001FF
