S00B00005370692E73726563ED
S11300000C9434000C9446000C9446000C94460066
S11300100C9446000C9446000C9446000C94460044
S11300200C9446000C9446000C9446000C94480032
S11300300C9446000C9446000C9446000C94460024
S11300400C9446000C9446000C9446000C94460014
S11300500C9446000C9446000C9446000C94460004
S11300600C9446000C94460011241FBECFEFD8E038
S1130070DEBFCDBF21E0A0E0B1E001C01D92A230FF
S1130080B207E1F70E948C000C94A0000C940000CD
S11300901F920F920FB60F9211248F939F9381E0BA
S11300A090E09093010180930001109285001092DA
S11300B0840082E086BB9F918F910F900FBE0F90BA
S11300C01F90189583ED8CBDE4E6F0E080818B7F72
S11300D08083109280008DE08093810010928200D2
S11300E089E09DE3909389008093880082E0809367
S11300F06F0086BB8CE284B91092C00088E18093C3
S1130100C1008EE28093C20087E690E09093C50020
S11301108093C400789408950E946200E6ECF0E0B5
S113012021E38091000190910101892BD1F3208377
S11301302A982EBD2A9A1092010110920001F1CF43
S1070140F894FFCF5D
S9030000FC
