:100000000C9434000C9449000C9449000C94490061
:100010000C9449000C9449000C9449000C9449003C
:100020000C9449000C9449000C9449000C94630012
:100030000C9449000C9449000C9449000C9449001C
:100040000C9449000C9449000C9449000C9449000C
:100050000C9449000C9449000C9449000C944900FC
:100060000C9449000C94490011241FBECFEFD8E036
:10007000DEBFCDBF11E0A0E0B1E0E6E6F1E002C0F6
:1000800005900D92A230B107D9F70E948B000C9415
:10009000B1000C9400008CE384B917B88FEF85B9D8
:1000A0001092800084E08093810084E294EF90932A
:1000B000890080938800109285001092840082E06D
:1000C00080936F0008951F920F920FB60F92112424
:1000D0008F939F931092850010928400809100016D
:1000E00090910101029739F485E090E0909301012D
:1000F0008093000109C08091000190910101019756
:1001000090930101809300019F918F910F900FBEFA
:100110000F901F901895F8940E944B0078948FEFE1
:1001200085B930990FC0209100013091010181E023
:1001300090E002C0880F991F2A95E2F795B18923B4
:1001400085B9EDCF209100013091010181E090E06F
:1001500002C0880F991F2A95E2F795B1892785B9C2
:06016000DECFF894FFCF92
:02016600050092
:00000001FF
