S00F0000746573744144432E737265638D
S11300000C9434000C943E000C943E000C943E007E
S11300100C943E000C943E000C943E000C943E0064
S11300200C943E000C943E000C943E000C943E0054
S11300300C943E000C943E000C943E000C943E0044
S11300400C943E000C943E000C943E000C943E0034
S11300500C943E000C943E000C943E000C943E0024
S11300600C943E000C943E0011241FBECFEFD8E048
S1130070DEBFCDBF0E9440000C945E000C940000D3
S1130080ECE7F0E0808181648083EAE7F0E080813E
S1130090806C808380917A0086FDFCCF809178000B
S11300A080917900EAE7F0E080818064808383EDC9
S11300B090E30197F1F700C00000ECCFF894FFCF74
S9030000FC
