S0200000726563657074696F6E6172655F7472616E736D69746572652E73726563F6
S11300000C9434000C9446000C9446000C94460066
S11300100C9446000C9446000C9446000C94460044
S11300200C9446000C9446000C9446000C94460034
S11300300C9446000C9446000C9446000C94460024
S11300400C9446000C9446000C9446000C94460014
S11300500C9446000C9446000C9446000C94460004
S11300600C9446000C94460011241FBECFEFD8E038
S1130070DEBFCDBF21E0A0E0B1E001C01D92A13000
S1130080B207E1F70E9448000C9462000C9400004F
S11300908091C0008823E4F79091C60090930001FA
S11300A08091C00085FFFCCF319909C08091C600C2
S11300B085FF05C080E298279093C600E9CF90930E
S10B00C0C600E6CFF894FFCF5F
S9030000FC
