:100000000C9434000C943E000C943E000C943E0082
:100010000C943E000C943E000C943E000C943E0068
:100020000C943E000C943E000C943E000C943E0058
:100030000C943E000C943E000C943E000C943E0048
:100040000C943E000C943E000C943E000C943E0038
:100050000C943E000C943E000C943E000C943E0028
:100060000C943E000C943E0011241FBECFEFD8E04C
:10007000DEBFCDBF0E944C000C945B000C940000CE
:1000800088E08093C10086E08093C20087E6809379
:10009000C4001092C50008950E94400091E401C080
:1000A00091E48091C00085FFFCCF9093C6009B3502
:0A00B000B8F79F5FF6CFF894FFCF7A
:00000001FF
