:100000000C9434000C9446000C9446000C9446006A
:100010000C9446000C9448000C9446000C94460046
:100020000C9446000C9446000C9446000C94460038
:100030000C9446000C9446000C9446000C94460028
:100040000C9446000C9446000C9446000C94460018
:100050000C9446000C9446000C9446000C94460008
:100060000C9446000C94460011241FBECFEFD8E03C
:10007000DEBFCDBF21E0A0E0B1E001C01D92A23003
:10008000B207E1F70E946C000C9475000C9400001C
:100090001F920F920FB60F9211248F939F9389B1E5
:1000A0008470809300019091000180910101981764
:1000B00061F080910001809301018091000188230B
:1000C00021F09BB188E089278BB99F918F910F9088
:1000D0000FBE0F901F90189588E08AB994E09BB9E5
:0E00E0009093680080936D00FFCFF894FFCFDF
:00000001FF
