S01100007465737454696D65722E7372656352
S11300000C9434000C943E000C943E000C943E007E
S11300100C943E000C943E000C943E000C943E0064
S11300200C943E000C943E000C943E000C943E0054
S11300300C943E000C943E000C943E000C943E0044
S11300400C943E000C943E000C943E000C943E0034
S11300500C943E000C943E000C943E000C943E0024
S11300600C943E000C943E0011241FBECFEFD8E048
S1130070DEBFCDBF0E946E000C9479000C9400008A
S113008080E284B98FEF85B91092800082E080937A
S11300908100109285001092840084E190E0909396
S11300A089008093880010926F000895BC0120E0BD
S11300B030E00AC0B19BFECF1092850010928400FC
S11300C092E096BB2F5F3F4F94E6969FA001979FC7
S11300D0500D11242417350768F308950E94400039
S11300E095B180E2892785B988EE93E00E94560095
S10900F0F7CFF894FFCFE6
S9030000FC
