S0120000746674446973706C61792E73726563EE
S11300000C9434000C9449000C9449000C9449005D
S11300100C9449000C9449000C9449000C94490038
S11300200C9449000C9449000C9449000C94490028
S11300300C9449000C9449000C9449000C94490018
S11300400C9449000C9449000C9449000C94490008
S11300500C9449000C9449000C9449000C944900F8
S11300600C9449000C94490011241FBECFEFD8E032
S1130070DEBFCDBF11E0A0E0B1E0E4E7F2E002C0F2
S113008005900D92A830B107D9F70E9430010C9465
S113009038010C94000024E1AC01249FC001259F89
S11300A0900D11241816190644F420E030E00000E5
S11300B02F5F3F4F82179307D1F708952A988EBD7B
S11300C00DB407FEFDCF2A9A08955B980E945E0046
S11300D008955B9A0E945E00089583E58CBD8CE2CE
S11300E084B98CE08AB91BB85A9881E090E00E94E8
S11300F04B005A9A81E090E00E944B0081E00E94FC
S1130100650081E090E00E944B0081E10E9465005F
S11301102FEF8BED95E0215080409040E1F700C037
S1130120000089E30E94650081E090E00E944B009A
S113013008950F931F93CF93DF93082FD62F142F77
S1130140C22F8AE20E94650080E00E946900802F2D
S11301500E94690080E00E946900812F0E9469006A
S11301608BE20E94650080E00E9469008D2F0E944E
S1130170690080E00E9469008C2F0E9469008CE273
S11301800E946500DF91CF911F910F910895CF9345
S1130190DF93D62FC42F0E9469008D2F0E9469001F
S11301A08C2F0E946900DF91CF910895CF92DF9246
S11301B0EF92FF920F931F93CF93DF93CDB7DEB7E8
S11301C027970FB6F894DEBF0FBECDBF97E0E0E0EF
S11301D0F1E0DE01119601900D929A95E1F726E087
S11301E0260F44E0480F0E9499008E010F5F1F4FB5
S11301F07E0188E0E80EF11C1FC0F801808190E0C8
S11302000C2C02C0959587950A94E2F780FF06C0EE
S113021040E060E08FEF0E94C70005C040E060E06E
S113022080E00E94C700F1E0CF1AD10830F70F5FD9
S11302301F4FE016F10629F06894CC24C2F8D12CA3
S1130240DCCF27960FB6F894DEBF0FBECDBFDF918B
S1130250CF911F910F91FF90EF90DF90CF90089571
S11302600E946D0041E46AE08AE00E94D600FFCF5C
S1070270F894FFCF2C
S10B02740E11111F11111100FC
S9030000FC
